:020000040800F2
:1000000000490020450100089114000893140008DD
:10001000971400089B1400089F14000800000000BB
:10002000000000000000000000000000A314000811
:10003000A514000800000000A71400085D010008D6
:100040005F0100085F0100085F0100085F01000810
:100050005F0100085F0100085F0100085F01000800
:100060005F0100085F0100085F0100085F010008F0
:100070005F0100085F0100085F0100085F010008E0
:100080005F0100085F0100085F0100085F010008D0
:100090005F0100085F0100085F0100085F010008C0
:1000A0005F0100085F0100085F0100085F010008B0
:1000B0005F0100085F0100085F0100085F010008A0
:1000C0005F0100085F0100085F0100085F01000890
:1000D0005F0100085F0100085F0100085F01000880
:1000E0005F0100085F0100085F0100085F01000870
:1000F0005F0100085F0100085F0100085F01000860
:100100005F0100085F0100085F0100085F0100084F
:100110005F0100085F0100085F0100085F0100083F
:100120005F0100085F0100085F0100085F0100082F
:10013000DFF80CD002F05CFE0048004723140008F2
:10014000004900200648804706480047FEE7FEE7D2
:10015000FEE7FEE7FEE7FEE7FEE7FEE7FEE7FEE777
:10016000871500083101000801684FF6FE72114042
:1001700001600021016041608160C1608D49884259
:1001800008D18C490839496841F00F01894A083A79
:1001900051608AE087491431884208D1854908397D
:1001A000496841F0F001834A083A51607DE0814995
:1001B0002831884208D17F490839496841F4706183
:1001C0007C4A083A516070E07A493C31884208D153
:1001D00078490839496841F47041764A083A5160D3
:1001E00063E074495031884208D17249083949683E
:1001F00041F470216F4A083A516056E06D4964310C
:10020000884208D16B490839496841F47001694A4C
:10021000083A516049E067497831884208D1654918
:100220000839496841F07061624A083A51603CE01F
:100230006149884206D1011F096841F00F01021F80
:10024000116032E05C491431884208D15A49091FD3
:10025000096841F0F001584A121F116025E0564923
:100260002831884208D15449091F096841F4706156
:10027000514A121F116018E04F493C31884208D1A1
:100280004D49091F096841F470414B4A121F116022
:100290000BE049495031884207D14749091F096895
:1002A00041F47021444A121F1160704710B50022BA
:1002B000026847F6F0739A430C6A8B6823430C6913
:1002C00023434C6923438C692343CC6923434C6A01
:1002D00023438C6A23431A430260CB6843600B6854
:1002E00083604B68C36010BD002101604160816084
:1002F000C160016141618161C161016241628162EC
:10030000704721B1026842F00102026004E0026815
:100310004FF6FE731A40026070471AB103680B4330
:10032000036002E003688B430360704741607047DD
:100330000146486880B2704701460020002201F063
:1003400080531BB11C4B083B1A6802E0194B083B59
:100350001A6802EA01030BB1012000E00020704797
:1003600000F0805119B11449091F086002E01149D9
:1003700008394860704701460020002201F0805390
:100380001BB10D4B083B1A6802E00A4B083B1A6888
:1003900002EA01030BB1012000E00020704700F0E9
:1003A000805119B10449091F086002E00149083968
:1003B00048607047080002400804024030B943F228
:1003C000DB028100A1F1C0410A6005E043F2D202E4
:1003D0008100A1F1C0410A606FF07042411C8900A8
:1003E000A1F1C0410A608100A1F1C041C1F804211E
:1003F000704710280AD118214FF020421166402181
:1004000051664FF0FC319166D16610E01821F74A31
:10041000116040214FF02042C2F884104FF0FC31AF
:10042000F24A083211604FF02042C2F88C10704737
:100430001820EE492031086000200906C1F8A40008
:100440004FF0FC30E94928310860091D0860091D9A
:1004500008607047D0E901121143C2681143026974
:1004600011434269114382691143C2691143026A0F
:100470001143426A1143826A1143C26A1143026BFB
:10048000114302689200A2F1C042116081680829FC
:100490000BD101688900A1F1C041096841F0400217
:1004A00001688900A1F1C0410A60416B0968426B93
:1004B000526841EA0211426B926841EA0221426BA2
:1004C000928941EA0241426B128A41EA0251426B2F
:1004D000127D41EA0261426B926911430268521C2B
:1004E0009200A2F1C0421160C16AB1F5804F1BD1E8
:1004F000816B0968826B526841EA0211826B9268D3
:1005000041EA0221826B128A41EA0251826B127D1A
:1005100041EA0261826B9269114302689200A2F182
:10052000C042C2F8041107E06FF070420168890010
:10053000A1F1C041C1F80421704730B5002100226B
:100540000023446844F0080485682C43C5682C43A4
:1005500005692C43456944EA4524856944EA4531E7
:10056000C4692468C5696D6844EA0524C5692D8994
:1005700044EA0544C5692D7B44EA0562046A24689F
:10058000056A6D6844EA0524056A2D8944EA054434
:10059000056A2D7B44EA05630468102C05D14FF0F1
:1005A00020442166A266E36608E0904C21604FF08B
:1005B0002044C4F888208D4C0C34236030BD016881
:1005C00041F01001426841EA4221826841EA423129
:1005D000864A20321160C1680968C268526841EADF
:1005E0000221C268128941EA0241C268127B41EAD3
:1005F00002617E4A28321160016909680269526805
:1006000041EA02210269128941EA02410269127B30
:1006100041EA0261754A2C321160416909684269F8
:10062000526841EA02214269128941EA0241426963
:10063000127B41EA02614FF02042C2F8B0107047CD
:10064000002101600221416000218160C1600161DF
:1006500041618161C16101624FF480514162490091
:1006600081620021C16201630F21426B1160426B04
:100670005160FF21426B91600F21426BD160426B50
:100680001161426B51610021426B91610F21826BBC
:100690001160826B5160FF21826B91600F21826B30
:1006A000D160826B1161826B51610021826B91611B
:1006B000704710210160002141608160C1600161CB
:1006C00041618161FC21C2691160C2695160C269E6
:1006D0009160C269D160026A1160026A5160026A67
:1006E0009160026AD16070470021016041608160C1
:1006F000FC21C2681160C2685160C2689160C26822
:10070000D1600269116002695160026991600269F9
:10071000D1604269116042695160426991604269E9
:10072000D160704751B18200A2F1C042126842F01C
:1007300001038200A2F1C042136009E08200A2F12D
:10074000C04212682A4B1A408300A3F1C0431A60CA
:10075000704799B1102808D14FF02042126E42F034
:1007600004024FF020431A661DE0204A126842F04E
:1007700004024FF02043C3F8802014E0102809D170
:100780004FF02042126E1A4BDB1E1A404FF02043EE
:100790001A6608E0154A1268154BDB1E1A404FF026
:1007A0002043C3F88020704748B1104920310968C0
:1007B00041F004014FF02042C2F8A01009E00B49BB
:1007C000203109680A4AD21E11404FF02042C2F877
:1007D000A0107047B9B110280CD14FF02042126E12
:1007E00042F040024FF020431A661FE0800000A054
:1007F000FEFF0F00724A126842F040024FF02043A1
:10080000C3F8802012E0102808D14FF02042126E69
:100810006C4B1A404FF020431A6607E0684A126892
:10082000684B1A404FF02043C3F8802070470146C0
:100830000020102903D14FF02042506F02E0604A9F
:1008400014321068704710B5F2B1102807D14FF07C
:1008500020435B6E0B434FF02044636632E0B0F5FB
:10086000807F08D1564B1B1D1B680B434FF0204463
:10087000C4F8843026E0524B24331B680B434FF0FE
:100880002044C4F8A4301DE0102807D14FF02043C5
:100890005B6E8B434FF02044636613E0B0F5807FBE
:1008A00008D1474B1B1D1B688B434FF02044C4F8F5
:1008B000843007E0424B24331B688B434FF02044C5
:1008C000C4F8A43010BD10B5024600200023102A41
:1008D00003D14FF02044636E09E0B2F5807F03D16D
:1008E000374C241D236802E0354C2434236803EA86
:1008F00001040CB1012000E0002010BD102807D138
:100900004FF02042526E8A434FF020435A6613E064
:10091000B0F5807F08D12A4A121D12688A434FF031
:100920002043C3F8842007E0254A243212688A4312
:100930004FF02043C3F8A420704770B50246002052
:10094000002300240025102A03D14FF02046736EA7
:1009500009E0B2F5807F03D1194E361D336802E0FD
:10096000174E2436336803EA010403EAD10514B1B3
:100970000DB1012000E0002070BD102808D14FF01B
:100980002042526E22EAD1024FF020435A6615E00F
:10099000B0F5807F09D10A4A121D126822EAD102FD
:1009A0004FF02043C3F8842008E0054A243212683F
:1009B00022EAD1024FF02043C3F8A4207047000080
:1009C000800000A0BFFF0F0010B50446CC48844251
:1009D00008D10121042000F02DFB0021042000F0AB
:1009E00029FB46E0C748844208D10121082000F0D5
:1009F00021FB0021082000F01DFB3AE0C2488442A0
:100A000008D10121102000F015FB0021102000F07A
:100A100011FB2EE0BD48844208D10121202000F0C6
:100A200009FB0021202000F005FB22E0B8488442A9
:100A300008D10121402000F0FDFA0021402000F003
:100A4000F9FA16E0B348844208D10121802000F071
:100A5000F1FA0021802000F0EDFA0AE0AE4884426D
:100A600007D10121801500F0E5FA0021A01500F062
:100A7000E1FA10BD10B50121084600F0DBFA0021B3
:100A8000012000F0D7FA10BD2DE9F0410246002503
:100A90000026002000230024002791F803C00CF05A
:100AA0000F0591F803C00CF0100CBCF1000F03D03F
:100AB00091F802C04CEA050591F800C0BCF1000FA6
:100AC00031D0146800202BE04FF0010C0CFA00F339
:100AD000B1F800C00CEA03069E4220D183004FF01B
:100AE0000F0C0CFA03F7BC4305FA03FC4CEA0404B0
:100AF00091F803C0BCF1280F06D14FF0010C0CFA9D
:100B000000FCC2F814C00AE091F803C0BCF1480F21
:100B100005D14FF0010C0CFA00FCC2F810C0401CCB
:100B20000828D1D31460B1F800C0BCF1FF0F34DD48
:100B3000546800202EE000F1080C4FF0010808FA7C
:100B40000CF3B1F800C00CEA03069E4221D18300E9
:100B50004FF00F0C0CFA03F7BC4305FA03FC4CEA08
:100B6000040491F803C0BCF1280F05D100F1080C72
:100B700008FA0CF8C2F8148091F803C0BCF1480FD1
:100B800007D100F1080C4FF0010808FA0CF8C2F880
:100B90001080401C0828CED35460BDE8F0814FF689
:100BA000FF710180022181700421C17070470246EB
:100BB000002093680B400BB1012000E0002070473B
:100BC0000146886880B2704702460020D3680B4017
:100BD0000BB1012000E0002070470146C86880B2D8
:100BE000704701617047416170470AB1016100E0DF
:100BF00041617047C16070474FF480320A4382619F
:100C00008161826182698269704702460020434B9C
:100C100018684FF68073184040EA021008433F4BB3
:100C2000186070473E49C8617047F0B50A46002316
:100C300000240021002500F00046B6F1004F02D14B
:100C4000364EF16901E0354E7168C0F3034583B259
:100C500000F44016B6F5401F08D121F070612F4E08
:100C6000766826F070662D4F7E6012E000F48016E4
:100C7000B6F5801F06D1032606FA05F4A14341F01C
:100C8000706106E0460D360103FA06F6B14341F005
:100C9000706122B1460D360103FA06F6314300F0C9
:100CA0000046B6F1004F02D11C4EF16101E01B4E2F
:100CB0007160F0BD30B500228B071C0F0F2303FAC3
:100CC00004F2164B08338C1053F824309343134C22
:100CD00008348D1044F8253023468C1053F8243006
:100CE0008C07240F00FA04F423430C4C08348D10B5
:100CF00044F8253030BD0A49DC31086070470000F7
:100D000000080140000C01400010014000140140A7
:100D100000180140001C014000200140000001407B
:100D200000002042DF48006840F00100DD49086013
:100D300008464068DC490840DA49486008460068CF
:100D4000DA490840D74908600846006820F4802046
:100D500008600846406820F4FE0048604FF41F0019
:100D600088607047CF49096821F48031CD4A11600D
:100D70001146096821F480211160B0F5803F03D04D
:100D8000B0F5802F0ED106E0C649096841F48031E4
:100D9000C44A116007E0C349096841F4A021C14A6F
:100DA000116000E000BF00BF704710B5014600228F
:100DB000002300204A11012A02D1BA4C236806E020
:100DC000022A02D1B74C236A01E0B64C636A01F0F3
:100DD0001F02012494401C400CB1012000E00020BF
:100DE00010BD38B5002000900024002500BF312040
:100DF000FFF7DBFF05460098401C00900098B0F517
:100E0000A06F01D0002DF2D03120FFF7CEFF08B146
:100E1000012400E00024204638BD01460020A14AFC
:100E2000106820F0F80040EAC10010607047A04947
:100E300008607047024600209A4B586820F47C10E6
:100E400042EA01031843974B586070479849086677
:100E5000704701460020934A506820F00300084381
:100E6000506070478F48406800F00C0070470146A2
:100E700000208C4A506820F0F00008435060704712
:100E800001460020874A506820F4E0600843506023
:100E9000704701460020834A506820F4605040EAC1
:100EA000C1005060704729B17E4A527A02437D4B9F
:100EB0005A7204E07B4A527A82437A4B5A727047E4
:100EC0007B49D8310860704701460020754A506858
:100ED00020F440400843506070470021714A20329E
:100EE0001170704A82F82010012802D004280AD11B
:100EF00004E001216B4A2032117005E00521694AA6
:100F00002032117000E000BF00BF704769490860DF
:100F100070476449096A0143624A11627047654932
:100F200044390860704730B50021002200240023B6
:100F30005C4D6D6805F00C0121B1042905D008292C
:100F400023D105E05C4D056022E05B4D05601FE0AC
:100F5000544D6D6805F47012524D6D6805F480347F
:100F6000022505EB92421CB9544D554305600BE038
:100F70004C4D6D6805F400351DB1504D554305606D
:100F800002E04D4D5543056002E04B4D056000BF4A
:100F900000BF444D6D6805F0F0010909484D6B5CD8
:100FA0000568DD4045603F4D6D6805F4E061090A64
:100FB000434D6B5C4568DD4085603A4D6D6805F4D6
:100FC0006051C90A3E4D6B5C4568DD40C560354DDA
:100FD0006D6805F44041890B3A4D6B5CC568B5FB03
:100FE000F3F5056130BD29B12E4A526902432D4BFC
:100FF0005A6104E02B4A526982432A4B5A61704776
:1010000029B1284A92690243264B9A6104E0254A95
:1010100092698243234B9A61704729B1214AD26970
:101020000243204BDA6104E01E4AD26982431D4B21
:10103000DA61704729B11B4AD2680243194BDA6062
:1010400004E0184AD2688243164BDA60704729B12F
:10105000144A12690243134B1A6104E0114A1269DF
:101060008243104B1A61704712494039086070473B
:101070000F49C86470470B49C87170470948406AF6
:1010800040F0807007494862704701460020054AD9
:1010900092680A400AB1012000E00020704701492F
:1010A00088727047001002400000FFF8FFFFF6FE54
:1010B000000042428004424200127A0000093D00D2
:1010C000000000201000002010B50446BE488442F5
:1010D00008D101218014FFF7ADFF0021A014FFF714
:1010E000A9FF16E0B948844208D101210014FFF796
:1010F000AEFF00212014FFF7AAFF0AE0B4488442A3
:1011000007D10121C013FFF7A2FF0021E013FFF771
:101110009EFF10BD10B50022028802F441520B88D8
:101120004C8823438C882343CC8823430C89234356
:101130004C8923438C892343CC8923431A4302805F
:10114000838B4FF2FF74234083830B8A038210BD8D
:101150002DE9F04F85B005460C464FF000090227F7
:101160004FF000084FF0010B0026B246A88B4FF25B
:1011700040010840A88302202884B5F81C90A0688C
:10118000022801D100BF38E0A08810B94FF0010B50
:1011900001E04FF0020B8D48854200D100E000BF16
:1011A0006846FFF7C0FEDDF800A0E088B0F5007FDC
:1011B0000AD14FEA1A2000EB80004000A168B0FB82
:1011C000F1F0401D86B20BE04FEA4B10BAFBF0F095
:1011D00000EB80004000A168B0FBF1F0401D86B23A
:1011E0000A20B6FBF0F606F00108A6EB0800C0F3F3
:1011F0004F074FF6FF7000EA0828022F01DBFF2F90
:1012000002DD02274FF00008E08840EA080038437A
:101210002884A088A189084361880843218808435D
:1012200040F4006040EA0909A5F81C9005B0BDE84B
:10123000F08F0021018041808180C1800181418146
:101240008181C18107210182704700210180418095
:101250008180C1800221816000218181704721B19C
:10126000028842F04002028004E002884FF6BF7319
:101270001A400280704721B1828B42F480628283DF
:1012800004E0828B4FF6FF331A408283704730B5FB
:10129000002400230C110125A540ABB21AB18588AA
:1012A0001D43858002E085889D43858030BD1AB14D
:1012B00083880B43838002E083888B43838070475D
:1012C000818170470146888970474FF6FF629142DD
:1012D00004D0028842F48072028004E002884FF653
:1012E000FF631A400280704721B1828842F00402F5
:1012F000828004E082884FF6FB731A408280704738
:1013000002884FF2FF731A40028002880A4302806B
:101310007047018841F480510180704721B10288F3
:1013200042F40052028004E002884DF6FF731A4036
:101330000280704702460020012901D0108B00E096
:10134000908A70470146088A7047B1F5804F04D1F2
:10135000028842F48042028004E002884BF6FF7368
:101360001A40028070470246002013890B400BB1DF
:10137000012000E000207047CA4302817047F0B5A9
:101380000246002000240023002501F00F0701265B
:10139000BE40B4B20B1101269E40B3B2968806EA55
:1013A00003051689264016B10DB1012000E000208A
:1013B000F0BD10B5002201F00F040123A3409AB242
:1013C000D343038110BD00000030014000380040CD
:1013D000003C004000B58BB001210846FFF703FE3A
:1013E000254800902548019000200290202003907D
:1013F00040200490C00006908020059000010790D6
:10140000002008904FF40050099040000A9069466F
:101410001B48FEF74BFF01211948FEF772FF0BB086
:1014200000BD002400F0C3FB062000F049FB154876
:1014300001F0AAF900214FF6FF7001F0ABF9124854
:101440000388124802880021084600F00BFC00BF08
:1014500003E0094840F82440641C142CF9DBFFF732
:10146000B9FF00BFFEE701B502E00098401E009002
:1014700000980028F9D108BD5C000020AC000020D5
:1014800008000240400000202A0000202800002020
:10149000704700BFFEE700BFFEE700BFFEE700BFEA
:1014A000FEE77047704770470CB500200190009030
:1014B0006C48006840F480306A49086000BF6948A1
:1014C000006800F4003000900198401C01900098E2
:1014D00018B90198B0F5A06FF1D16248006800F426
:1014E000003010B10120009001E000200090009831
:1014F000012843D15C48006840F010005A49086058
:101500000846006820F0030008600846006840F0C4
:1015100002000860534840685249486008464068E5
:1015200048600846406840F480604860084640686B
:1015300020F47C1048600846406840F4E810486099
:101540000846006840F08070086000BF45480068A9
:1015500000F000700028F9D04248406820F00300F5
:10156000404948600846406840F00200486000BFBB
:101570003C48406800F00C000828F9D10CBD10B5BB
:10158000FFF792FF10BD10B53648006840F001002B
:101590003449086008464068344908403149486089
:1015A00008460068324908402E490860084600682D
:1015B00020F4802008600846406820F4FE0048605F
:1015C0004FF41F008860FFF7DAFF4FF000602949F1
:1015D000086010BD10B5002100200022214B5B687F
:1015E00003F00C0121B1042906D0082928D107E015
:1015F000214B224C236027E01F4B204C236023E02B
:10160000184B5B6803F47010164B5B6803F4803270
:10161000022303EB904022B9194B4343174C23603C
:101620000DE0104B5B6803F4003323B1144B4343CC
:10163000124C236003E0104B4343104C236003E043
:101640000D4B0E4C236000BF00BF064B5B68C3F31D
:1016500003130C4CE15C094B1B68CB40074C236027
:1016600010BD000000100240002002400000FFF802
:10167000FFFFF6FE08ED00E000127A0014000020E3
:1016800000093D001800002001B502E00098401E4E
:10169000009000980028F9D108BD08B5012160200C
:1016A000FFF7AEFC03208DF8020018208DF8030030
:1016B0004FF48040ADF800006946FE48FFF7E4F9BA
:1016C0004FF40040ADF800006946FA48FFF7DCF936
:1016D0000120ADF800006946F648FFF7D5F9022071
:1016E000ADF800006946F348FFF7CEF98020ADF869
:1016F00000006946F048FFF7C7F94FF48070ADF875
:1017000000006946EC48FFF7BFF94FF40070ADF8F0
:1017100000006946E848FFF7B7F94FF48060ADF87C
:1017200000006946E448FFF7AFF94FF40060ADF8F8
:1017300000006946E048FFF7A7F94FF48050ADF884
:1017400000006946DC48FFF79FF94FF40050ADF800
:1017500000006946D848FFF797F94FF48040ADF88C
:1017600000006946D448FFF78FF94FF40040ADF808
:1017700000006946D048FFF787F94FF48070ADF854
:1017800000006946CB48FFF77FF94FF40070ADF8D1
:1017900000006946C748FFF777F94FF48060ADF85D
:1017A00000006946C348FFF76FF903208DF8020077
:1017B00018208DF803001020ADF800006946BD48E0
:1017C000FFF762F92020ADF800006946B948FFF73D
:1017D0005BF98020ADF800006946B648FFF754F980
:1017E0004FF40060ADF800006946B248FFF74CF9CD
:1017F00010208DF8030003208DF802000220ADF8C0
:1018000000006946AC48FFF73FF910208DF803004F
:1018100003208DF802004FF48050ADF800006946B7
:10182000A448FFF731F908BD00B597B001210802BF
:10183000FFF7D9FB01200190042003908006079058
:1018400000200290049005900690089009900820CE
:101850000A9010200B9000200C900E900F9010908A
:101860004FF480501190002012901390149001A812
:101870001590169008A8FEF7EDFD01210020FEF757
:1018800051FF17B000BD10B5CF2001F0C9FA0020FC
:1018900001F0CAFA812001F0C7FA302001F0C4FA41
:1018A000ED2001F0BDFA642001F0BEFA032001F042
:1018B000BBFA122001F0B8FA812001F0B5FAE82055
:1018C00001F0AEFA852001F0AFFA102001F0ACFA79
:1018D000782001F0A9FACB2001F0A2FA392001F01A
:1018E000A3FA2C2001F0A0FA002001F09DFA342088
:1018F00001F09AFA022001F097FAF72001F090FA2D
:10190000202001F091FAEA2001F08AFA002001F08B
:101910008BFA002001F088FAB12001F081FA002052
:1019200001F082FA1B2001F07FFAB62001F078FA6C
:101930000A2001F079FAA22001F076FAC02001F025
:101940006FFA352001F070FAC12001F069FA112018
:1019500001F06AFAC52001F063FA452001F064FA4B
:10196000452001F061FAC72001F05AFAA22001F0E7
:101970005BFAF22001F054FA002001F055FA26201B
:1019800001F04EFA012001F04FFAE02001F048FA90
:101990000F2001F049FA262001F046FA242001F038
:1019A00043FA0B2001F040FA0E2001F03DFA092025
:1019B00001F03AFA542001F037FAA82001F034FA85
:1019C000462001F031FA0C2001F02EFA172001F028
:1019D0002BFA092001F028FA0F2001F025FA072040
:1019E00001F022FA002001F01FFAE12001F018FABC
:1019F000002001F019FA192001F016FA1B2001F05D
:101A000013FA042001F010FA102001F00DFA07205B
:101A100001F00AFA2A2001F007FA472001F004FA3F
:101A2000392001F001FA032001F0FEF9062001F04F
:101A3000FBF9062001F0F8F9302001F0F5F9382023
:101A400001F0F2F90F2001F0EFF9362001F0E8F98A
:101A5000C82001F0E9F92A2001F0E2F9002001F0A4
:101A6000E3F9002001F0E0F9002001F0DDF9EF20BA
:101A700001F0DAF92B2001F0D3F9002001F0D4F9BC
:101A8000002001F0D1F9012001F0CEF93F2001F052
:101A9000CBF93A2001F0C4F9552001F0C5F9112025
:101AA00001F0BEF90548FFF7EFFD292001F0B8F974
:101AB00010BD00000014014000180140FCBF0200EE
:101AC00010B50446072C00DD10BDFE48047020460A
:101AD00004EBD0714910A4EB410139B9F020FA4967
:101AE00008804FF4A070F949088006E04FF4A07018
:101AF000F5490880F020F5490880362001F090F97A
:101B0000082141EA441001F08FF92A2001F088F9F8
:101B1000002001F089F9002001F086F9EA490988DE
:101B2000491EC1F3072001F07FF9E7490978491EF2
:101B3000C8B201F079F92B2001F072F9002001F010
:101B400073F9002001F070F9E0490988491EC1F3DA
:101B5000072001F069F9DD490978491EC8B201F092
:101B600063F92C2001F05CF900BFADE710B502214C
:101B7000D748FFF738F840F6FF20FFF785FD022130
:101B8000D348FFF72EF840F6FF20FFF77DFD10BD8C
:101B900010B504462CB14FF48051CE48FFF723F81E
:101BA00004E04FF48051CB48FFF71BF810BD10B58F
:101BB000FFF773FDFFF738FE0120FFF7E9FFFFF79E
:101BC000D5FFFFF760FEBF480078FFF779FF10BD33
:101BD0002DE9F04104460D4616461F462A2001F025
:101BE0001FF9201201F020F9E0B201F01DF9A1194E
:101BF000491EC1F30F2001F017F9A119491EC8B2FF
:101C000001F012F92B2001F00BF9281201F00CF968
:101C1000E8B201F009F9E919491EC1F30F2001F0FA
:101C200003F9E919491EC8B201F0FEF8BDE8F081D8
:101C300070B504460D4601231A4629462046FFF793
:101C4000C7FF70BD70B504460D4600262C2001F07C
:101C5000E7F800BF03E0284601F0E6F8761CA6424C
:101C6000F9D370BD2DE9F04106460F4614461D46D6
:101C70002B46224639463046FFF7AAFF04FB05F003
:101C800095490988FFF7DEFFBDE8F08170B505468C
:101C90000C468D48008885420CDA8C4800888442C6
:101CA00008DA21462846FFF7C3FF8C480188012047
:101CB000FFF7C8FF70BD70B50024002500262E2058
:101CC00001F0AEF801F0A6F8044601F0A3F80446CE
:101CD00001F0A0F8064601F09DF80546E012C002AA
:101CE000A91240EA411040EAE62070BD70B50446F2
:101CF0000D4629462046FFF79BFFFFF7DCFF06460F
:101D0000304670BD2DE9FF4F83B081464FF0000A89
:101D1000D3460598A0EB090504990698461ACDF814
:101D2000049004980090002D01DD012705E00DB915
:101D3000002702E04FF0FF376D42002E02DD4FF02A
:101D4000010806E016B94FF0000802E04FF0FF3836
:101D50007642B54201DD2C4600E034460020029078
:101D600019E0DDE90010FFF791FFAA44B344A24552
:101D700005DDAAEB040A0198384480B20190A3451E
:101D800005DDABEB040B0098404480B20090029854
:101D9000401C80B20290611C02988842E1DD07B0CD
:101DA000BDE8F08F2DE9F04104460D4616461F466A
:101DB000DDF81880B8F1000F0CD03B4632462946BA
:101DC0002046FFF705FF06FB07F044490988FFF7A7
:101DD00039FF27E0A019401E82B22B462946204633
:101DE000FFF790FFE819401E83B2A019401E82B28F
:101DF000E819401E81B22046FFF784FFE819401E13
:101E000083B2224629462046FFF77CFFE919491E86
:101E10008BB2A119491E8AB2A119491E88B229465E
:101E2000FFF770FFBDE8F0812DE9F05F05460E4633
:101E300091469B4600240FFA89F70320A0EB490046
:101E40000FFA80FA97E0BBF1000F50D0A0464BE0AC
:101E500006EB080291B22A1990B2FFF717FF06EBC2
:101E6000080291B22A1B90B2FFF710FF321991B20B
:101E7000A5EB080290B2FFF709FF321B91B2A5EB68
:101E8000080290B2FFF702FFA6EB080291B22A1BEC
:101E900090B2FFF7FBFEA6EB080291B22A1990B2AE
:101EA000FFF7F4FE321B91B205EB080290B2FFF788
:101EB000EDFE321991B205EB080290B2FFF7E6FE93
:101EC0000EE000002C000020280000202A00002046
:101ED00000180140001401403600002034000020AA
:101EE00008F101000FFA80F8B845B1DD2FE0F219D2
:101EF00091B22A1990B2FFF7C9FEF21991B22A1BCA
:101F000090B2FFF7C3FE321991B2EA1B90B2FFF70D
:101F1000BDFE321B91B2EA1B90B2FFF7B7FEF21B77
:101F200091B22A1B90B2FFF7B1FEF21B91B22A19AF
:101F300090B2FFF7ABFE321B91B2EA1990B2FFF7F5
:101F4000A5FE321991B2EA1990B2FFF79FFE601C0C
:101F500004B2BAF1000F05DAA000801D50440FFA58
:101F600080FA07E0E01B80000A3050440FFA80FA44
:101F7000781E07B200BFBC427FF765AFBDE8F09F97
:101F80002DE9F05F804689461646A6F120001FFA2B
:101F900080FAFD4909688988FB4A1268D28801FBEA
:101FA00002F0C11700EB5171C1F3C707F648006892
:101FB00000680AFB070BF4480068C388F248006811
:101FC000828849464046FFF703FE2C2000F028FF98
:101FD000002416E0002510E01BF8040080212941B0
:101FE000084020B1E948008800F01EFF03E0E848FF
:101FF000008800F019FF681CC5B2082DECDB601CDE
:10200000C4B2BC42E6DBBDE8F09F70B504460D46A5
:10201000002624E03046DC49096889880844DD4907
:102020000988884205DD0026D7480068C08820441A
:1020300084B22046D4490968C9880844D649098829
:10204000884201DD002600242A7821463046FFF729
:1020500097FF6D1CCC4800688088304486B2287891
:102060000028D7D170BD70B505460E46144624E051
:102070002846C549096889880844C64909888842AC
:1020800005DD0025C0480068C088304486B230466F
:10209000BD490968C9880844BF490988884201DDEB
:1020A00000250026227831462846FFF769FF641C88
:1020B000B54800688088284485B220780028D7D1A8
:1020C00070BD70B505460E46144624E03046AE4954
:1020D0000968C9880844B0490988884205DD002696
:1020E000A94800688088284485B22846A64909681E
:1020F00089880844A7490988884201DD002500260F
:10210000227831462846FFF73BFF641C9E48006852
:10211000C088304486B220780028D7D170BD2DE920
:10212000F04389B080468946174610231A4649462F
:102130004046FFF74DFD2C2000F072FE394601A805
:1021400000F058FB002422E001A810F814604FF6BC
:10215000FF7000EA0626012000EB440001A9085C9C
:10216000064300250FE04FF400402841304020B1E5
:102170008648008800F058FE03E08548008800F09B
:1021800053FE681CC5B2102DEDDB601CC4B2102CD0
:10219000DADB09B0BDE8F0832DE9F04105460F46D2
:1021A00014461FE0284610307A490988884203DD2A
:1021B000002507F1100087B23846103076490988AB
:1021C000884201DD002500272688300200EB26200A
:1021D00086B2324639462846FFF7A1FF05F11000C6
:1021E00085B2A41C20780028DCD1BDE8F0812DE95F
:1021F000F04105460C46002648E020787E2825DC84
:1022000030466149096889880844624909888842DA
:1022100005DD00265C480068C088284485B2284651
:1022200059490968C98808445B490988884201DD21
:1022300000260025227829463046FFF7A1FE5248A5
:1022400000688088304486B2641C1FE0304610303D
:1022500050490988884203DD002605F1100085B247
:10226000284610304C490988884201DD00260025A7
:102270002788380200EB272087B23A4629463046A5
:10228000FFF74DFF06F1100086B2A41C207800284D
:10229000B3D1BDE8F0812DE9F04105460E46144664
:1022A00048E020787E2825DC284637490968898857
:1022B000084438490988884205DD0025324800680D
:1022C000C088304486B230462F490968C98808441E
:1022D00031490988884201DD0025002622783146EF
:1022E0002846FFF74DFE284800688088284485B2BC
:1022F000641C1FE02846103026490988884203DD07
:10230000002506F1100086B23046103022490988B7
:10231000884201DD002500262788380200EB2720AF
:1023200087B23A4631462846FFF7F9FE05F110001C
:1023300085B2A41C20780028B3D1BDE8F0812DE936
:10234000F04106460D46144636E028461030124944
:102350000988884203DD002506F1100086B2304668
:1023600010300C490988884201DD002600252078BC
:102370007E2813DC227829463046FFF701FE641CD4
:1023800005F1100085B217E0300000203400002075
:1023900036000020280000202A000020278838026C
:1023A00000EB272087B23A4629463046FFF7B7FEB2
:1023B00005F1100085B2A41C20780028C5D1BDE825
:1023C000F0812DE9FC4F0C461E464FEA004A9AFB6D
:1023D000F2FA0AF1010ACDF804A04FEA044A9AFB86
:1023E000F6FA0AF1010ACDF800A04FF00009202802
:1023F00001DBBDE8FC8F00FB04FABAF1000F00D14D
:10240000F7E700FB04FABAF5806F00DBF1E702FBA7
:1024100006FABAF1000F00D1EBE702FB06FABAF5B3
:10242000804F00DBE5E7EB4BDDF834A0BAF1000F9D
:102430002BD100211FE0002517E0DDF82CA01AF8B1
:1024400001A04FF0800B4BFA05FB0AEA0B0ABAF128
:10245000000F02D04FF0010A01E04FF0000A03F82C
:1024600001AB05F1010A1FFA8AF5082DE5DB01F140
:10247000010A1FFA8AF104FB00FA4FEAEA7B0AEB31
:102480005B7BB1EBEB0FD6DB2AE000211FE00025E0
:1024900017E0DDF82CA01AF801A04FF0800B4BFAE2
:1024A00005FB0AEA0B0ABAF1000F02D04FF0010A4D
:1024B00001E04FF0000A03F801AB05F1010A1FFA31
:1024C0008AF5082DE5DB01F1010A1FFA8AF104FB08
:1024D00000FA4FEAEA7B0AEB5B7BB1EBEB0FD6DB52
:1024E000BC4BBD4F4FF0000C1AE04FF0000A4FEA12
:1024F000194B00FB0B3ED0460AE00EEB1A4B9BF843
:1025000000B007F808B0DDF804B0DA4408F10108BB
:102510009045F2D3DDF800B0D94417440CF1010C1A
:10252000B445E2D3DFF8B0A2CDF830A0DDF830A09A
:102530000AF1010ACDF830A000BF5AE72DE9F05F9B
:1025400081468A4614461D46DDE90A6B0027B846D7
:102550002B46224651464846FFF73AFB2C2000F016
:102560005FFC00BF14E04FF000080EE016F8011BFE
:10257000594504D19948008800F056FC03E098487A
:10258000008800F051FC08F10108A045EED37F1C43
:10259000AF42E8D3BDE8F09F2DE9F04F8FB006467B
:1025A000884614469946DDE9185B274669E03046BF
:1025B00038448C490988884204DD002608EB09006C
:1025C0001FFA80F84046484487490988884201DD5F
:1025D0000026B0462878802825DD2746B5F800A0DB
:1025E0004FEA0A2000EB2A201FFA80FA514605A87C
:1025F00000F000F9012105AA0E984B46CDE9002014
:1026000002913A4610210846FFF7DBFE72484B461E
:102610003A464146CDE9000B3046FFF78FFFF019EF
:1026200086B2AD1C2DE0204604EBD071C1F34F07FC
:1026300028782038C0B20D9000236C48C288DDE9AC
:102640000D015043694A92885043C217049000EB31
:102650005270664A126802EBE0008DE80B004B46B0
:102660003A4618211020FFF7ACFE5B484B463A462D
:102670004146CDE9000B3046FFF760FFF01986B206
:102680006D1C2878002892D10FB0BDE8F08F2DE99D
:10269000F04F8FB080460E4614461F46DDE9185AAB
:1026A0000E946BE0304620444E490988884204DD90
:1026B000002608EB04001FFA80F8404638444A49D7
:1026C0000988884201DD0026B0462878802825DD6B
:1026D0000E94B5F800904FEA092000EB29201FFA6C
:1026E00080F9494604A800F085F8012104AA0D9854
:1026F0003B46CDE900200291102108460E9AFFF7D3
:1027000060FE35483B46CDE9000A314640460E9A08
:10271000FFF714FFF01986B2AD1C2FE0204604EB42
:10272000D071C1F34F010E9128782038C0B20C90BF
:1027300000232E48C288DDE90C0150432B4A9288C1
:1027400000FB02FB4FEAEB700BEB5070274A12685C
:1027500002EBE0008DE80B003B46182110200E9A9A
:10276000FFF72FFE1C483B46CDE9000A31464046A4
:102770000E9AFFF7E3FEF01986B26D1C2878002848
:1027800090D10FB0BDE8F08F194908607047184824
:1027900000687047124A1080104A11807047104A32
:1027A000128802800D4A12880A8070470C490880FE
:1027B00070470A490880704770B50446FFF7E7FF85
:1027C000C5882B460748028821460020FFF74AFAB1
:1027D00070BD0000FC400020FC00002036000020FE
:1027E00034000020280000202A00002040000020A3
:1027F000300000202DE9F04180460C46104800785A
:1028000020B900F021F801200D4908702512E6B228
:10281000A5F1A101C1EB011202EB411106EB41014F
:10282000A1390802C11700EB5171CF1005483918C2
:102830002022404600F0B6F90020BDE8F0810000FB
:10284000500000200030180000B587B001210803B7
:10285000FEF7D6FB0121D420FEF7D2FB0120ADF814
:10286000040003208DF8060010208DF8070001A950
:10287000FE48FEF709F92020ADF8040018208DF875
:10288000070001A9FA48FEF7FFF84020ADF8040060
:1028900001A9F748FEF7F8F88020ADF8040001A977
:1028A000F348FEF7F1F80121F048FEF79AF900200D
:1028B000ADF808004FF48270ADF80A000020ADF8C2
:1028C0000C000220ADF80E000120ADF8100040020F
:1028D000ADF812000820ADF814000020ADF8160085
:1028E0000720ADF8180002A9E248FEF713FC012109
:1028F000E048FEF7B4FC07B000BD10B50446214621
:10290000DDA000F097FA002010BD10B504464FF48A
:102910008050E54908600AE0E3490868411EE24A40
:10292000116020B90020FFF7E8FFC0B210BD0221FE
:10293000D048FEF718FD0028EED02146CD48FEF71E
:10294000BFFC4FF48050D84908600AE0D6490868B7
:10295000411ED54A116020B90120FFF7CEFFC0B259
:10296000E4E70121C348FEF7FEFC0028EED0C14891
:10297000FEF7A8FCC0B2D9E710B500240121BB487E
:10298000FEF731F90520FFF7C0FF00BFFF20FFF77A
:10299000BCFF044604F001000028F7D10121B34830
:1029A000FEF71FF910BD10B50121B048FEF71BF965
:1029B0000620FFF7AAFF0121AC48FEF712F910BD6F
:1029C00010B50446FFF7EFFFFFF7D6FF0121A74838
:1029D000FEF709F92020FFF798FFC4F30740FFF73F
:1029E00094FFC4F30720FFF790FFE0B2FFF78DFFDD
:1029F00001219E48FEF7F5F8FFF7BEFF10BD10B5A8
:102A0000FFF7D1FF01219948FEF7EDF8C720FFF746
:102A10007CFF01219548FEF7E4F8FFF7ADFF10BDFC
:102A200070B505460C461646FFF7BDFF01218F48DD
:102A3000FEF7D9F80220FFF768FFC4F30740FFF75D
:102A400064FFC4F30720FFF760FFE0B2FFF75DFF0C
:102A5000B6F5807F04DD4FF4807694A000F0EAF9AB
:102A600003E02878FFF751FF6D1C3000A6F101014B
:102A70008EB2F6D101217D48FEF7B3F8FFF77CFF57
:102A800070BD2DE9F05F07460E4614464FF0000872
:102A9000C146C2460025AB4606F0FF0ACAF1000057
:102AA000C5B22046E11704EB1161C1F30728E11715
:102AB00004EB11610912A4EB012101F0FF09BAF145
:102AC000000F20D1B8F1000F05D12246314638461B
:102AD000FFF7A6FF64E009E04FF480723146384604
:102AE000FFF79EFF06F5807607F580775FEA08001E
:102AF000A8F1010101F0FF08EED14A4631463846FF
:102B0000FFF78EFF4CE0B8F1000F18D1A94510DD9A
:102B1000A9EB050000F0FF0B2A4631463846FFF7C7
:102B20007FFF2E442F445A4631463846FFF778FF40
:102B300036E0224631463846FFF772FF30E0601B30
:102B400084B22046E11704EB1161C1F30728E117B5
:102B500004EB11610912A4EB012101F0FF092A46DF
:102B600031463846FFF75CFF2E442F4409E04FF40E
:102B7000807231463846FFF753FF06F5807607F539
:102B800080775FEA0800A8F1010101F0FF08EED1AB
:102B9000B9F1000F04D04A4631463846FFF740FFEE
:102BA000BDE8F09F70B505460C46164601212F483A
:102BB000FEF719F80320FFF7A8FEC4F30740FFF75C
:102BC000A4FEC4F30720FFF7A0FEE0B2FFF79DFECE
:102BD00004E0FF20FFF799FE28706D1C3000A6F17D
:102BE00001018EB2F5D101212048FDF7FAFF70BD39
:102BF0002DE9F041002400250026002701211B4873
:102C0000FDF7F1FF9F20FFF780FEFF20FFF77DFE1D
:102C10000546FF20FFF779FE0646FF20FFF775FE09
:102C2000074601211148FDF7DCFF280440EA062091
:102C300040EA07042046BDE8F08110B500240121D8
:102C40000A48FDF7D0FFAB20FFF75FFEFF20FFF73C
:102C50005CFEFF20FFF759FEFF20FFF756FEFF2026
:102C6000FFF753FE04460121004839E000100140FF
:102C700000080140003001403C3C2D464C41534887
:102C80002D4552524F522D3E3E2053504920B5C83B
:102C9000B4FDB3ACCAB1216572726F72436F6465E3
:102CA000203D2025640A0000540000203C3C2D46B5
:102CB0004C4153482D4552524F522D3E3E205350C9
:102CC000495F464C4153485F50616765577269746C
:102CD0006520746F6F206C61726765210A000000C7
:102CE000FDF77FFF204610BD10B504460121324894
:102CF000FDF779FF0320FFF708FEC4F30740FFF755
:102D000004FEC4F30720FFF700FEE0B2FFF7FDFD6D
:102D100010BD10B5FF20FFF7F8FD10BD10B504463B
:102D20004FF480502549086009E024490868411E95
:102D3000224A116018B90220FFF7DFFD10BD022101
:102D40001F48FEF710FB0028EFD021461C48FEF775
:102D5000B7FA4FF480501949086009E0174908682C
:102D6000411E164A116018B90320FFF7C6FDE5E7BA
:102D700001211348FEF7F7FA0028EFD01048FEF7BC
:102D8000A1FADBE710B501210B48FDF72CFFB920B4
:102D9000FFF7BBFD01210848FDF723FF10BD10B56B
:102DA00001210548FDF71FFFAB20FFF7AEFD012114
:102DB0000148FDF716FF10BD00100140540000202F
:102DC0000030014030B50B4601460020202201248E
:102DD00009E021FA02F59D4205D303FA02F5491BE9
:102DE00004FA02F52844151EA2F10102F1DC30BDFF
:102DF000064C074D06E0E06840F0010394E8070048
:102E000098471034AC42F6D3FDF796F9286D0008C8
:102E1000486D00080148008870470000000002600B
:102E20004FF0C0410880704701490880704700009A
:102E3000000002600FB4054B10B503A9044A0298C4
:102E400000F018F810BC5DF814FB0000B731000862
:102E50005800002002E008C8121F08C1002AFAD159
:102E600070477047002001E001C1121F002AFBD10A
:102E7000704700002DE9FF4F8BB0884605460026BD
:102E800006E025280BD0DDE90D1290476D1C761C5D
:102E900028780028F5D10FB03046BDE8F08F002427
:102EA000A146A2460122AE4900E0044315F8013FC5
:102EB000203B02FA03F00842F7D128782A2810D0E4
:102EC0006FF02F022878A0F13001092915D809EBFD
:102ED000890102EB410144F0020400EB01096D1C81
:102EE000F0E758F8041B5FEA010903D544F40054E5
:102EF000C9F1000944F002046D1C28782E2817D16E
:102F000015F8010F44F004042A280ED06FF02F02A8
:102F10002878A0F1300109290AD80AEB8A0102EBCE
:102F2000410100EB010A6D1CF2E758F804AB6D1C7F
:102F300028786C280FD006DC4C2817D068280DD0D4
:102F40006A2814D104E0742810D07A280FD10DE03B
:102F500044F400140AE044F4801401E044F4401402
:102F60006978814202D104F580146D1C6D1C2878AB
:102F7000692865D006DC00288DD0632827D0642816
:102F800006D15DE06E2808D073282AD0752877D046
:102F9000DDE90D129047761CE0E0C4F302500228F0
:102FA00009D003280DD0D8F8001004280DD00E60E9
:102FB00008F10408D2E0D8F80010F217C1E9006265
:102FC000F6E7D8F800100E80F2E70E70F0E718F878
:102FD000041B8DF8001000208DF80100EB46012045
:102FE00003E058F804BB4FF0FF3061074FF00007D3
:102FF00001D40AE07F1C57450DDA8742FADB1BF843
:1030000007100029F6D106E07F1C8742FCDB1BF885
:1030100007100029F8D1DDE90D23A9EB070081464F
:10302000214600F0B1F83044C61904E0DDE90D1284
:103030001BF8010B90477F1EF8D22146484688E0D6
:1030400058F8040BC4F302514FF00A0B032900D1C6
:1030500000B2042900D140B2002802DA40422D21FA
:1030600002E0210505D52B218DF82410012104E073
:1030700006E0E10710D02021F6E708AF089113E041
:1030800058F8040BC4F302514FF00A0B032900D186
:1030900080B2042900D1C0B20021EEE75946FFF703
:1030A00091FE303107F8011D0028F7D1ADEB070084
:1030B00000F1200B600702D524F4803401E04FF0CA
:1030C000010ADA4502DDAAEB0B0000E0002082468F
:1030D00000EB0B0108980144A9EB01000A90E00302
:1030E00006D4DDE90D2321460A9800F04DF8064488
:1030F0004FF0000908E009A911F80900DDE90D12F7
:10310000904709F10109761C08998945F3DBE00332
:103110000CD5DDE90D2321460A9800F035F8064468
:1031200004E0DDE90D1230209047761CBAF1000171
:10313000AAF1010AF5DC05E0DDE90D1217F8010B33
:103140009047761CBBF10001ABF1010BF4DC0A984F
:103150002146DDE90D2300F005F806446D1C97E6D5
:10316000092801002DE9F041044600251E461746B6
:10317000880404D405E039462020B0476D1C641E45
:10318000F9D52846BDE8F0812DE9F0410446002537
:103190001E469046C80301D5302700E0202788044A
:1031A00004D505E041463846B0476D1C641EF9D58C
:1031B0002846BDE8F08138B504468DF80000694620
:1031C0000320ABBE204638BD000000000000000018
:1031D0000000000000000000000000181818181877
:1031E00018080008180000000000003424242400FF
:1031F00000000000000000000000000016247F24F2
:1032000024247E2424000000000000083E68486852
:103210001C1612127C10100000000061D296740877
:1032200010162949C6000000000000003C64643804
:10323000724ACE467F0000000000001818181800DF
:10324000000000000000000000000004081810301A
:103250003030301010180C04000000201008080C4A
:103260000404040C08181020000000080A341C6A2A
:103270000800000000000000000000000000181816
:10328000187F18181800000000000000000000005F
:1032900000000018180830000000000000000000C6
:1032A000003C0000000000000000000000000000E2
:1032B00000000018180000000000000206040C08BE
:1032C0000810102020400000000000003C6642472B
:1032D0005B7342663C00000000000000187848085C
:1032E000080808087E000000000000003C460606B2
:1032F000040810207E000000000000007C06060488
:103300003C0202067C000000000000000C1C14249B
:103310006444FF0404000000000000007E60606060
:103320007E0202067C000000000000001E306048A3
:10333000764242623C000000000000007E0206046B
:103340000C08181030000000000000003C624236FB
:103350001C6642423C000000000000003C66424205
:10336000661A02047800000000000000000018182F
:1033700000000018180000000000000000001818ED
:1033800000000018180830000000000000000418B9
:103390003060100C0600000000000000000000007B
:1033A0007E007E00000000000000000000003018D9
:1033B00004060C1020000000000000301C06060669
:1033C00018100010100000000000001C224141DD18
:1033D000B5A5A5AF94C0403C00000000181C3424E3
:1033E00026627E43C1000000000000007C46424689
:1033F0007C4242427C000000000000001E20404051
:10340000404040603E000000000000007C46424317
:103410004343424678000000000000007E60606088
:103420007E6060607E000000000000007E606060E2
:103430007E60606060000000000000001E60404090
:10344000CE4242623E000000000000004242424282
:103450007E42424242000000000000007E18181820
:10346000181818187E000000000000007C040404F6
:103470000404044478000000000000004244485066
:1034800070584C4442000000000000002020202022
:10349000202020203E000000000000006266675FE0
:1034A0005B5BC1C1C100000000000000626272529B
:1034B0005A4A4E4646000000000000003C6243C3EA
:1034C000C3C343623C000000000000007C4642424F
:1034D0004678404040000000000000003C6243C3CA
:1034E000C3C343623C180F00000000007C666266A4
:1034F0007C6C646662000000000000003E6040607A
:103500001C0602027C000000000000007F18181852
:10351000181818181800000000000000424242422B
:10352000424242623C00000000000000C14342628F
:103530002624341C1800000000000000C1C14149CD
:103540005B5B76666600000000000000436634188E
:10355000181C2466C300000000000000C14266344D
:103560001C18181818000000000000007E02040C4F
:10357000181020607E0000000000001C10101010C9
:10358000101010101010101C00000040202010100F
:1035900008080C04060200000000003C0C0C0C0C97
:1035A0000C0C0C0C0C0C0C3C00000000181C2462D1
:1035B000000000000000000000000000000000000B
:1035C00000000000000000FF0000002010000000CC
:1035D00000000000000000000000000000003C06A9
:1035E000023E42467A0000000000004040405C621B
:1035F000424242427C0000000000000000001E2009
:10360000604060203E0000000000000202023E62B6
:10361000424242663A0000000000000000003C62A6
:10362000427E40603E0000000000000F1810107E37
:1036300010101010100000000000000000003F6695
:10364000426658403E43423C0000004040405C62BD
:103650004242424242000000000000181800780870
:10366000080808087E000000000000040C007C042C
:103670000404040404040C78000000606060626CC0
:10368000787068646200000000000078080808088C
:10369000080808087E000000000000000000764BCB
:1036A0004B4B4B4B4B0000000000000000005C62E5
:1036B00042424242420000000000000000003C6222
:1036C000424342623C0000000000000000005C62D7
:1036D000424242427C4040400000000000003E6206
:1036E000424242663A0202020000000000006E728E
:1036F00063606060600000000000000000003E2089
:10370000203C06027C000000000000001010FE10AB
:10371000101010101E0000000000000000004242C7
:10372000424242663A0000000000000000004342AE
:103730006624341818000000000000000000C1C119
:103740005B5A5E6666000000000000000000622612
:103750001C181C266200000000000000000043420C
:103760006624341C181830E00000000000007E06BB
:103770000C1810207E0000000000000E1810101021
:10378000307010101010180E000008080808080803
:103790000808080808080808000000301808080889
:1037A0000C0E080808081830000000000000000097
:1037B000714B060000000000000000000000000047
:1037C00000000000000000000000000000000000F9
:1037D00000000000000000000000000000000000E9
:1037E00000000000000000000000000000000000D9
:1037F0000000038001800180018001800180018040
:103800000180018001800000000003C003C00000AF
:1038100000000000000000000000000000000000A8
:1038200000000E700E700E700C30000000000000E2
:103830000000000000000000000000000000000088
:103840000000000000000000000000000000000078
:10385000000000000618063806307FFE0C300C30E1
:103860000C300C307FFE0C601C601860186000008B
:103870000000000000000000000000000000000048
:1038800000C000C00FF83CC831C031803D801F80AF
:1038900003F001F8031C030C031C3FF83FE0070092
:1038A0000600000000000000000000000000000012
:1038B0001C007E0E630C631863307E6000C00180C4
:1038C0000300077C0EE61CC618C630C6607C0000EC
:1038D00000000000000000000000000000000000E8
:1038E00000000FE01CF0387038701C601FC00F0023
:1038F0003F8C71CC60EC607C70383CFC1FCE0000CB
:1039000000000000000000000000000000000000B7
:10391000000003C001800180018000000000000061
:103920000000000000000000000000000000000097
:103930000000000000000000000000000000000087
:10394000003000E001C0018003000700060006000F
:103950000E000E000E000E0006000700030003809C
:1039600001C000E000300000000000000000000086
:103970000C0006000380018001C000E000600060D0
:103980000070007000700060006000E000C0018006
:10399000038006000C000000000000000000000092
:1039A0000000018011881DB803C007E03DBC0188FC
:1039B0000180000000000000000000000000000086
:1039C00000000000000000000000000000000000F7
:1039D00000000000000000000180018001800180E3
:1039E00001807FFE018001800180018000000000D5
:1039F00000000000000000000000000000000000C7
:103A000000000000000000000000000000000000B6
:103A1000000000000000000003C003C001C001C09E
:103A200003801F00000000000000000000000000F4
:103A30000000000000000000000000000000000086
:103A400000000FF000000000000000000000000077
:103A50000000000000000000000000000000000066
:103A60000000000000000000000000000000000056
:103A7000000000000000000003C003C003C00000FD
:103A80000000000000000000000000000000000036
:103A90000000001800380030006000E000C001C0E5
:103AA00001800300030006000E000C001C0018003B
:103AB00030000000000000000000000000000000D6
:103AC000000001800FF01C38381C301C707E70EE36
:103AD000738E7E0E7C0C300C381C1E780FE00000BC
:103AE00000000000000000000000000000000000D6
:103AF0000000000007C01FC039C001C001C001C0E4
:103B000001C001C001C001C001C03FFC3FFC00007A
:103B100000000000000000000000000000000000A5
:103B2000000003801FF018380038001800380038F3
:103B3000007001E0038007001C003FFC3FFC000018
:103B40000000000000000000000000000000000075
:103B5000000007801FF0003800380038003007E010
:103B600007F00038001C001C001820F83FE000009F
:103B70000000000000000000000000000000000045
:103B80000000000000F001B0033007300E301C30A0
:103B9000383070307FFE7FFE003000300030000093
:103BA0000000000000000000000000000000000015
:103BB000000000001FF818001800180018001FE08F
:103BC00000F8001C001C001C003800F01FC00000A2
:103BD00000000000000000000000000000000000E5
:103BE0000000000003F80F001C001800300037F838
:103BF0003C3C300C300C380C381C1E380FF00000E8
:103C000000000000000000000000000000000000B4
:103C1000000000003FFC001C00180038007000602D
:103C200000E001C001800380070006000E000000D4
:103C30000000000000000000000000000000000084
:103C4000000003C01FF8381C381C381C1C380FF04B
:103C500007F01C78381C300C381C3C380FF0000082
:103C60000000000000000000000000000000000054
:103C7000000003801FF03838301C701C700C380CAA
:103C80001FFC0FCC001C001800701FE01F800000FC
:103C90000000000000000000000000000000000024
:103CA0000000000000000000000003C003C001800D
:103CB000000000000000000003C003C003C00000BB
:103CC00000000000000000000000000000000000F4
:103CD0000000000000000000000003C003C00180DD
:103CE000000000000000000003C003C001C001C0CC
:103CF00003800F0000000000000000000000000032
:103D00000000000000000000003800F001C00700C3
:103D10001E0038000E00078001C000700030000057
:103D20000000000000000000000000000000000093
:103D300000000000000000000000000000003FFC48
:103D4000000000003FFC3FFC0000000000000000FD
:103D50000000000000000000000000000000000063
:103D600000000000000000001C000F00038001E0C4
:103D70000078001C007001E003800E000C000000C1
:103D80000000000000000000000000000000000033
:103D900000000FC000F0003800380038003803F091
:103DA000038003000300000000000780078000007C
:103DB0000000000000000000000000000000000003
:103DC00000E007F80C0C18063006700363F3663346
:103DD000C673CC63CC62CC66CCE6C7FCE000600066
:103DE000700038101FF0000000000000000000000C
:103DF0000000000003C007E006E00E700E700C30FB
:103E00001C3818183FFC3FFC700E600EE0070000E5
:103E100000000000000000000000000000000000A2
:103E2000000000003FF03838381C381C38383FF0AC
:103E30003FF8381C380C380C381C3FF83FE00000C5
:103E40000000000000000000000000000000000072
:103E5000000000E007FC1E0438003800300070004D
:103E600070007000300038003C001F9C07FC000010
:103E70000000000000000000000000000000000042
:103E8000000000003FF03078301C300C300E300E57
:103E9000300E300E300E301C30383FF03FC0000086
:103EA0000000000000000000000000000000000012
:103EB000000000001FF818001800180018001FF874
:103EC0001FF818001800180018001FF81FF800004D
:103ED00000000000000000000000000000000000E2
:103EE000000000001FF818001800180018001FF844
:103EF0001FF818001800180018001800180000001B
:103F000000000000000000000000000000000000B1
:103F1000000000F007FC1E04380030007000700044
:103F200070FC700C700C300C380C1F1C07FC00006F
:103F30000000000000000000000000000000000081
:103F400000000000300C300C300C300C300C3FFC0A
:103F50003FFC300C300C300C300C300C300C0000BE
:103F60000000000000000000000000000000000051
:103F7000000000003FFC0180018001800180018081
:103F8000018001800180018001803FFC3FFC000036
:103F90000000000000000000000000000000000021
:103FA000000000001FF00030003000300030003012
:103FB000003000300030003000701DE01FC00000F5
:103FC00000000000000000000000000000000000F1
:103FD00000000000381C387038E039C03B803F00DA
:103FE0003F003B8039C038E038703838381C00005A
:103FF00000000000000000000000000000000000C1
:10400000000000001C001C001C001C001C001C0008
:104010001C001C001C001C001C001FFC1FFC0000DE
:104020000000000000000000000000000000000090
:1040300000000000381C7C3C6C3E6E6E666E66CEE6
:1040400063C66386618660066006600660060000DF
:104050000000000000000000000000000000000060
:10406000000000003C0C3C0C3E0C360C330C338C36
:10407000318C31CC30EC306C307C303C301C00006A
:104080000000000000000000000000000000000030
:10409000000001C00FF81C3C381C700E700E60064A
:1040A0006006700E700E700C381C1E780FE0000059
:1040B0000000000000000000000000000000000000
:1040C000000000003FF0383C381C380C380C381C1D
:1040D00038783FE0380038003800380038000000F9
:1040E00000000000000000000000000000000000D0
:1040F000000001C00FF81C3C381C700E700E6006EA
:104100006006700E700E700C381C1E780FE0018077
:1041100001C000FF003C00000000000000000000A3
:10412000000000003FF0383838183818383838F0B8
:104130003FC038E0387038383838381C380E000046
:10414000000000000000000000000000000000006F
:10415000000001E00FF83800380038003C001F80F4
:1041600003F00078001C001C001C38783FE00000C1
:10417000000000000000000000000000000000003F
:10418000000000007FFE018001800180018001802D
:104190000180018001800180018001800180000098
:1041A000000000000000000000000000000000000F
:1041B00000000000300C300C300C300C300C300C97
:1041C000300C300C300C300C381C1C380FF0000058
:1041D00000000000000000000000000000000000DF
:1041E00000000000E006700E700E381C381C1C1811
:1041F0001C380C300E70066007E003C003C00000DE
:1042000000000000000000000000000000000000AE
:104210000000000060066006600660066186638636
:1042200073C673CE766C366C3C3C3C3C381C00004C
:10423000000000000000000000000000000000007E
:1042400000000000301C38181C380E7007E003C056
:1042500003C007E00E701C381838381C700E0000C0
:10426000000000000000000000000000000000004E
:1042700000000000700E700C381C1C380E700660B8
:1042800007E003C0018001800180018001800000FF
:10429000000000000000000000000000000000001E
:1042A000000000003FFC001C0038007000E001C06E
:1042B000038007000E000C0018003FFC3FFC0000CC
:1042C00000000000000000000000000000000000EE
:1042D00007F007F0060006000600060006000600CC
:1042E000060006000600060006000600060006009E
:1042F0000600060007F000000000000000000000BB
:10430000000018001C000C000600070003000380DA
:10431000018001C000C0006000700030003800184B
:10432000000C000000000000000000000000000081
:104330000FE00FE00060006000600060006000605F
:10434000006000600060006000600060006000606D
:10435000006000600FE000000000000000000000AE
:104360000000000003C006C006600C301818301CA6
:10437000000000000000000000000000000000003D
:10438000000000000000000000000000000000002D
:10439000000000000000000000000000000000001D
:1043A000000000000000000000000000000000000D
:1043B00000000000FFFF00000000000000000000FF
:1043C00000001E000380000000000000000000004C
:1043D00000000000000000000000000000000000DD
:1043E00000000000000000000000000000000000CD
:1043F000000000000000000000001FF01038001C4A
:10440000001C0FFC1C1C381C381C3CFC1FDC000072
:10441000000000000000000000000000000000009C
:10442000000038003800380038003BF83E1C3C1CC7
:10443000380C380C380C380C381C3C781FE0000065
:10444000000000000000000000000000000000006C
:104450000000000000000000000007F80E001C0033
:1044600038003800380038001C000F1807F800002A
:10447000000000000000000000000000000000003C
:104480000000001C001C001C001C0FFC1C1C381C25
:10449000301C301C301C301C383C1CFC0F9C0000B5
:1044A000000000000000000000000000000000000C
:1044B000000000000000000000000FF01C38381C55
:1044C000300C3FFC3000300038001E0C07FC0000B0
:1044D00000000000000000000000000000000000DC
:1044E000003C01FE03800300030003007FFC7FFC0F
:1044F00003000300030003000300030003000000A7
:1045000000000000000000000000000000000000AB
:10451000000000000000000000000FFE1C383818EA
:10452000381818381FF03B8030003FF01FFC300E69
:10453000700E381C1FF80000000000000000000092
:10454000000038003800380038003BF83E383C1C8A
:10455000381C381C381C381C381C381C381C00000F
:10456000000000000000000000000000000000004B
:10457000018003C003C0000000001FC001C001C0D3
:1045800001C001C001C001C001C001C03FFC00006A
:10459000000000000000000000000000000000001B
:1045A000002000700070000000003FF000700070FC
:1045B000007000700070007000700070007000707B
:1045C000007020E03FC0000000000000000000007C
:1045D00000001800180018001800183C187018E0A7
:1045E0001B801F001B8019E018701838181C000071
:1045F00000000000000000000000000000000000BB
:1046000000001FC001C001C001C001C001C001C045
:1046100001C001C001C001C001C001C03FFC0000D9
:10462000000000000000000000000000000000008A
:10463000000000000000000000006F3C79EE71CE29
:10464000718E718E718E718E718E718E718E000071
:10465000000000000000000000000000000000005A
:10466000000000000000000000003BF83E383C1C49
:10467000381C381C381C381C381C381C381C0000EE
:10468000000000000000000000000000000000002A
:10469000000000000000000000000FF01C3C381C6F
:1046A000700E700E700E700C381C1E780FE000003B
:1046B00000000000000000000000000000000000FA
:1046C000000000000000000000003BF83E1C3C1C05
:1046D000380C380C380C380C381C3C783FE038006B
:1046E0003800380038000000000000000000000022
:1046F000000000000000000000000FFC1C1C381C23
:10470000301C301C301C301C383C1CFC0F9C001C26
:10471000001C001C001C0000000000000000000045
:104720000000000000000000000019F81F1C1C0C15
:10473000180E1800180018001800180018000000C3
:104740000000000000000000000000000000000069
:10475000000000000000000000000FF81C0018001E
:104760001E000FC001F80018001818381FF00000D4
:104770000000000000000000000000000000000039
:10478000000000000600060006007FFC0600060090
:1047900006000600060006000700078401FC000072
:1047A0000000000000000000000000000000000009
:1047B00000000000000000000000381C381C381CFD
:1047C000381C381C381C381C383C1CFC0FDC000022
:1047D00000000000000000000000000000000000D9
:1047E00000000000000000000000700C381C3818A9
:1047F0001C380C300E70066007E003C003C00000D8
:1048000000000000000000000000000000000000A8
:1048100000000000000000000000600660066186E5
:10482000738E73CC33CC366C366C3C3C3C38000019
:104830000000000000000000000000000000000078
:1048400000000000000000000000381C1C380E7042
:1048500007E003C003C007E00E701C38381E0000DC
:104860000000000000000000000000000000000048
:1048700000000000000000000000700C381C381818
:104880001C380C300E70066007E003C003C00380C4
:1048900007000E007C000000000000000000000087
:1048A000000000000000000000001FF80038007049
:1048B00000E001C0038007000C001FFC3FFC00006B
:1048C00000000000000000000000000000000000E8
:1048D000007801F8038003800380038003800300D5
:1048E0003F003E00030003800380038003800380B9
:1048F000038001C000F8000000000000018001807A
:10490000018001800180018001800180018001809F
:10491000018001800180018001800180018001808F
:104920000180018001800000000000000000000004
:104930001E001F80018001C001C001C001C000C075
:1049400000FC007C00C001C001C001C001C001C06A
:1049500001C003801F0000000000000000000000F4
:1049600000000000000000000000000000001C002B
:104970003F0671CE60FC0000000000000000000057
:104980000000000000000000000000000000000027
:104990000000000000000000000000000000000017
:1049A0000000000000000000000000000000000007
:1049B00000000000000000000000000000000000F7
:1049C00000000000000000000000000000000000E7
:1049D00000000000000000000000000000000000D7
:1049E00000000000000000000000000000000000C7
:1049F00000000000000000000000003C00003C003F
:104A0000003C00003C00003C00003C00003C00007A
:104A10003C00003C00003C00003C00003C00003C2E
:104A200000003C00000000000000003C00007E0090
:104A3000003C00000000000000000000000000003A
:104A40000000000000000000000000000000000066
:104A50000000000000000000000003C3E003C3E00A
:104A600003C3C003C3C003C3C003C3C003C1C000AA
:104A70000000000000000000000000000000000036
:104A80000000000000000000000000000000000026
:104A90000000000000000000000000000000000016
:104AA0000000000000000000000000000000000006
:104AB00000000000000000000000000000000000F6
:104AC00001E0E001C0E001C0E001C0E03FFFFE3FC7
:104AD000FFFE03C1C00381C00381C00381C07FFF0B
:104AE000FC7FFFFC078380070380070380070380A8
:104AF0000707800000000000000000000000000028
:104B000000000000000000000000000000000000A5
:104B100000000000000000000700000F00000E0071
:104B200001FFF007FFF01F0E001E1E001E1C001EDE
:104B30001C000FDC0007FC0000FF80003FF0003885
:104B4000F800387800783C0070783071F83FFFE06A
:104B50001FFF0000E00000E00000E0000000000097
:104B60000000000000000000000000000000000045
:104B7000000000000000000000000F800F3FE01E5A
:104B800078703C7070707070E07071C03FE3801F8F
:104B9000C700000E00001C0000780000F0F001E7E4
:104BA000FC03CF0E078E0E0F0E0E1E0E0E3C07BC22
:104BB0007003F8000000000000000000000000008A
:104BC00000000000000000000000000000000000E5
:104BD0000000000000000000000000000001FF00D5
:104BE00007FF800F03C00F03C00F03C00F0780072C
:104BF0009F0003FE0003F0000FF83C3E7C3C3C1F8E
:104C00003C780FF87807F87C01F03E03F81FFFFCB2
:104C100007FE1F0000000000000000000000000070
:104C20000000000000000000000000000000000084
:104C300000000000000000000000003E00003C00FA
:104C4000003C00003C00003C00003C00003C000038
:104C50000000000000000000000000000000000054
:104C60000000000000000000000000000000000044
:104C70000000000000000000000000000000000034
:104C80000000000000000000000000000000000024
:104C9000000000000000000000800001C00007804C
:104CA000000F00001E00003C0000780000F0000033
:104CB000E00001E00001E00001C00003C00003C00B
:104CC0000001C00001E00001E00000F00000F00081
:104CD000007800003C00001E00000F000007C0002C
:104CE00001C0000000000000000000000000000003
:104CF0000000000000000000000003C00001E00010
:104D000000F000007C00003E00001E00000F0000CC
:104D100007800007800003800003C00003C0000379
:104D2000C00003C0000380000780000780000F0060
:104D3000001E00003C0000780000F00001E00003CD
:104D400080000000000000000000000000000000E3
:104D500000000000000000000000001C00001C001B
:104D60000018000F18F007DBE0007F0000FF0007CD
:104D7000DBE00E1870001800001C00001C00000092
:104D80000000000000000000000000000000000023
:104D90000000000000000000000000000000000013
:104DA0000000000000000000000000000000000003
:104DB00000000000000000000000000000000000F3
:104DC000000000000000000000003C00003C00006B
:104DD0003C00003C00003C00003C003FFFFC3FFF6B
:104DE000FC003C00003C00003C00003C00003C009B
:104DF00000000000000000000000000000000000B3
:104E000000000000000000000000000000000000A2
:104E10000000000000000000000000000000000092
:104E20000000000000000000000000000000000082
:104E30000000000000000000000000000000000072
:104E400000000000000000007C00007E00007E00EA
:104E5000003E00001E00003C0000F80007E00004D7
:104E60000000000000000000000000000000000042
:104E70000000000000000000000000000000000032
:104E80000000000000000000000000000000000022
:104E9000000000000000000000000003FFE003FF2E
:104EA000E000000000000000000000000000000022
:104EB00000000000000000000000000000000000F2
:104EC00000000000000000000000000000000000E2
:104ED00000000000000000000000000000000000D2
:104EE00000000000000000000000000000000000C2
:104EF00000000000000000000000000000000000B2
:104F000000000000000000007C0000FE0000FE0029
:104F1000007E000000000000000000000000000013
:104F20000000000000000000000000000000000081
:104F3000000000000000000000000000780000F009
:104F40000000E00001E00003C000038000078000D3
:104F50000F00000E00001E00003C00003800007032
:104F60000000F00000E00001C00003C00007800066
:104F70000700000F00001E00001C000000000000E1
:104F80000000000000000000000000000000000021
:104F90000000000000000000000000000000000011
:104FA00001FFC007FFE00F00F01E00781E003C3C30
:104FB00000FC3C07FC3C1FBC3C7C1C3DF03C3FC063
:104FC0003C3F003C1E00381E00780F80F007FFE0D9
:104FD00001FF800000000000000000000000000051
:104FE00000000000000000000000000000000000C1
:104FF00000000000000000000000000000000000B1
:10500000007E0003FE001FDE000E1E00001E0000DA
:105010001E00001E00001E00001E00001E00001EDC
:1050200000001E00001E00001E00001E000FFFF802
:105030000FFFF8000000000000000000000000006A
:105040000000000000000000000000000000000060
:105050000000000000000000000000000000000050
:1050600003FF800FFFE00E01F00000F00000F000F1
:1050700000F00000F00001E00003C0000F80003EDF
:1050800000007C0001F00003C0000F80001FFFFC47
:105090001FFFFC00000000000000000000000000F6
:1050A0000000000000000000000000000000000000
:1050B00000000000000000000000000000000000F0
:1050C0000FFF800FFFE00001E00000F00000F000A3
:1050D00001E00003C001FF0001FFC00003F0000079
:1050E000780000780000780000780001F00FFFC021
:1050F0000FFF0000000000000000000000000000A2
:10510000000000000000000000000000000000009F
:10511000000000000000000000000000000000008F
:10512000000FC0001FC0003FC0007BC000F3C001E3
:10513000E3C003C3C00783C00F03C01C03C0380310
:10514000C07FFFFE7FFFFE0003C00003C00003C05E
:105150000003C0000000000000000000000000008C
:10516000000000000000000000000000000000003F
:10517000000000000000000000000000000000002F
:105180000FFFE00FFFE00F00000F00000F00000F07
:1051900000000F00000FFF800FFFE00000F0000094
:1051A000780000780000780000F00003E00FFFC0F6
:1051B0000FFE0000000000000000000000000000E2
:1051C00000000000000000000000000000000000DF
:1051D00000000000000000000000000000000000CF
:1051E000003FF001FFF003E0000780000F00001E09
:1051F00000001E1F001FFFE01FC1F81E00781E00E8
:105200003C1E003C1E003C0F00780F80F807FFE0BA
:1052100001FF80000000000000000000000000000E
:10522000000000000000000000000000000000007E
:10523000000000000000000000000000000000006E
:105240001FFFFC1FFFFC0000780000F00000E000E2
:1052500001E00003C0000780000F00000F00001EE7
:1052600000003C0000780000F00001F00001E000C8
:1052700003C000000000000000000000000000006B
:10528000000000000000000000000000000000001E
:10529000000000000000000000000000000000000E
:1052A00003FFE00FE3F00F00781E00781E00780F78
:1052B00000F007E3E001FF8001FF8007E7E00F0057
:1052C000F81E00781E003C1E007C1F00F80FFFF047
:1052D00003FFC0000000000000000000000000000C
:1052E00000000000000000000000000000000000BE
:1052F00000000000000000000000000000000000AE
:1053000003FF800FC7E01E00F01E00783C00783CD1
:1053100000783C00381E00780FEFF807FFB8000057
:10532000780000780000F00001E0000FC00FFF00DF
:105330000FF000000000000000000000000000006E
:10534000000000000000000000000000000000005D
:10535000000000000000000000000000000000004D
:10536000000000000000000000000000007E0000BF
:105370007E00007E00001800000000000000000019
:1053800000000000000000003C00007E00007E00E5
:10539000003E0000000000000000000000000000CF
:1053A00000000000000000000000000000000000FD
:1053B00000000000000000000000000000000000ED
:1053C000000000000000000000000000007E00005F
:1053D0007E00007E000018000000000000000000B9
:1053E00000000000000000003E00007E00007F0082
:1053F000001F00001E00001E0000FC0007F000045B
:10540000000000000000000000000000000000009C
:10541000000000000000000000000000000000008C
:105420000000000000000000400001E00007C00094
:105430001F00007E0001F80003E0000F80000F80D5
:105440000003E00000F800003E00000F800003E0D1
:105450000000E0000000000000000000000000006C
:10546000000000000000000000000000000000003C
:10547000000000000000000000000000000000002C
:10548000000000000000000000000000000000001C
:1054900000000000001FFFF80000000000000000F6
:1054A000001FFFF81FFFF8000000000000000000D0
:1054B00000000000000000000000000000000000EC
:1054C00000000000000000000000000000000000DC
:1054D00000000000000000000000000000000000CC
:1054E00000000000000000000007800003E0000052
:1054F000F800003E00000F800003E00000F800010B
:10550000F00007C0001F00007C0001F00007C00091
:105510000300000000000000000000000000000088
:10552000000000000000000000000000000000007B
:105530000000000000000000000001C00001FE00AB
:10554000007F800007C00001E00000F00000F000D4
:1055500001F00003E0007FC0007E000070000070DA
:105560000000700000000000000000F80000F800DB
:1055700000F8000000000000000000000000000033
:10558000000000000000000000000000000000001B
:1055900000000000000000000000001F8000FFF07D
:1055A00003C07807801C0E000E1C000E3C000F3854
:1055B0003FC778FFC770E3C771C3C7F3C387E3C3AF
:1055C00087E3878EE3878EE3CF8EE3FFFC71F9F0EC
:1055D0007000007000003800003C00000F01C007A0
:1055E000FFC00000000000000000000000000000FC
:1055F00000000000000000000000000000000000AB
:10560000007E00007F0000FF0000E78001E78003CC
:10561000C3C003C3C00781E00781E00F00F00F00A3
:10562000F81FFFF81FFFFC3C003C3C001E78001EEA
:10563000F0000F000000000000000000000000006B
:10564000000000000000000000000000000000005A
:10565000000000000000000000000000000000004A
:105660001FFFC01FFFF01E00F01E00781E00781EF6
:1056700000F01E01F01FFFC01FFFE01E01F81E001A
:10568000781E003C1E003C1E00781E00F81FFFE044
:105690001FFF0000000000000000000000000000EC
:1056A00000000000000000000000000000000000FA
:1056B00000000000000000000000000000000000EA
:1056C00000FFF803FFF807C0000F00001E00001ED7
:1056D00000003C00003C00003C00003C00003C009E
:1056E000003E00001E00000F00000FC00803FFF87E
:1056F00000FFF800000000000000000000000000B3
:105700000000000000000000000000000000000099
:105710000000000000000000000000000000000089
:105720003FFF003FFFE03C01F03C00783C003C3C88
:10573000003C3C003C3C001E3C001E3C001E3C006B
:105740003C3C003C3C00783C00F83C07E03FFFC09C
:105750003FFC00000000000000000000000000000E
:105760000000000000000000000000000000000039
:105770000000000000000000000000000000000029
:105780000FFFF00FFFF00F00000F00000F00000FE1
:1057900000000F00000FFFF00FFFF00F00000F00E0
:1057A000000F00000F00000F00000F00000FFFF0BF
:1057B0000FFFF000000000000000000000000000EB
:1057C00000000000000000000000000000000000D9
:1057D00000000000000000000000000000000000C9
:1057E0000FFFF00FFFF00F00000F00000F00000F81
:1057F00000000F00000FFFF00FFFF00F00000F0080
:10580000000F00000F00000F00000F00000F00004D
:105810000F00000000000000000000000000000079
:105820000000000000000000000000000000000078
:105830000000000000000000000000000000000068
:1058400000FFFC03FFFC0FC0041F00001E00003C13
:1058500000003C0000780FFC780FFC78003C3C0016
:105860003C3C003C3E003C1F003C0FC03C03FFFCA6
:1058700000FFF80000000000000000000000000031
:105880000000000000000000000000000000000018
:105890000000000000000000000000000000000008
:1058A0003C003C3C003C3C003C3C003C3C003C3C64
:1058B000003C3C003C3FFFFC3FFFFC3C003C3C000C
:1058C0003C3C003C3C003C3C003C3C003C3C003C44
:1058D0003C003C0000000000000000000000000050
:1058E00000000000000000000000000000000000B8
:1058F00000000000000000000000000000000000A8
:105900000FFFF80FFFF8003C00003C00003C0000D7
:105910003C00003C00003C00003C00003C00003C1F
:1059200000003C00003C00003C00003C000FFFF881
:105930000FFFF80000000000000000000000000061
:105940000000000000000000000000000000000057
:105950000000000000000000000000000000000047
:105960000FFFE00FFFE00001E00001E00001E000B8
:1059700001E00001E00001E00001E00001E00001C1
:10598000E00001E00001E00003C00C07C00FFF8051
:1059900007FE000000000000000000000000000002
:1059A00000000000000000000000000000000000F7
:1059B00000000000000000000000000000000000E7
:1059C0001E00781E01F01E03C01E07801E1F001E51
:1059D0003C001E78001EF0001FF0001EF8001E3C68
:1059E000001E1E001E0F801E07C01E01E01E00F8D4
:1059F0001E007C000000000000000000000000000D
:105A00000000000000000000000000000000000096
:105A10000000000000000000000000000000000086
:105A200007800007800007800007800007800007CC
:105A30008000078000078000078000078000078043
:105A40000007800007800007800007800007FFF83C
:105A500007FFF80000000000000000000000000048
:105A60000000000000000000000000000000000036
:105A70000000000000000000000000000000000026
:105A80003E007C3F00FC3F81DC3B81DC3BC39C391A
:105A9000C39C38E71C38EF1C387E1C387C1E383C11
:105AA0001E78001E78001E78001E78001E78001EEA
:105AB00078001E0000000000000000000000000050
:105AC00000000000000000000000000000000000D6
:105AD00000000000000000000000000000000000C6
